{
  "_format": "hh-sol-artifact-1",
  "contractName": "NFTMarketplace",
  "sourceName": "contracts/NFTMarketplace.sol",
  "abi": [
    {
      "inputs": [],
      "stateMutability": "nonpayable",
      "type": "constructor"
    },
    {
      "anonymous": false,
      "inputs": [
        {
          "indexed": true,
          "internalType": "address",
          "name": "owner",
          "type": "address"
        },
        {
          "indexed": true,
          "internalType": "address",
          "name": "approved",
          "type": "address"
        },
        {
          "indexed": true,
          "internalType": "uint256",
          "name": "tokenId",
          "type": "uint256"
        }
      ],
      "name": "Approval",
      "type": "event"
    },
    {
      "anonymous": false,
      "inputs": [
        {
          "indexed": true,
          "internalType": "address",
          "name": "owner",
          "type": "address"
        },
        {
          "indexed": true,
          "internalType": "address",
          "name": "operator",
          "type": "address"
        },
        {
          "indexed": false,
          "internalType": "bool",
          "name": "approved",
          "type": "bool"
        }
      ],
      "name": "ApprovalForAll",
      "type": "event"
    },
    {
      "anonymous": false,
      "inputs": [
        {
          "indexed": true,
          "internalType": "uint256",
          "name": "tokenId",
          "type": "uint256"
        },
        {
          "indexed": false,
          "internalType": "address",
          "name": "seller",
          "type": "address"
        },
        {
          "indexed": false,
          "internalType": "address",
          "name": "owner",
          "type": "address"
        },
        {
          "indexed": false,
          "internalType": "uint256",
          "name": "price",
          "type": "uint256"
        },
        {
          "indexed": false,
          "internalType": "bool",
          "name": "sold",
          "type": "bool"
        },
        {
          "indexed": false,
          "internalType": "uint256",
          "name": "played",
          "type": "uint256"
        }
      ],
      "name": "MarketItemCreated",
      "type": "event"
    },
    {
      "anonymous": false,
      "inputs": [
        {
          "indexed": true,
          "internalType": "address",
          "name": "from",
          "type": "address"
        },
        {
          "indexed": true,
          "internalType": "address",
          "name": "to",
          "type": "address"
        },
        {
          "indexed": true,
          "internalType": "uint256",
          "name": "tokenId",
          "type": "uint256"
        }
      ],
      "name": "Transfer",
      "type": "event"
    },
    {
      "inputs": [
        {
          "internalType": "uint256",
          "name": "",
          "type": "uint256"
        }
      ],
      "name": "NFTusage",
      "outputs": [
        {
          "internalType": "uint256",
          "name": "_value",
          "type": "uint256"
        }
      ],
      "stateMutability": "view",
      "type": "function"
    },
    {
      "inputs": [
        {
          "internalType": "address",
          "name": "to",
          "type": "address"
        },
        {
          "internalType": "uint256",
          "name": "tokenId",
          "type": "uint256"
        }
      ],
      "name": "approve",
      "outputs": [],
      "stateMutability": "nonpayable",
      "type": "function"
    },
    {
      "inputs": [
        {
          "internalType": "address",
          "name": "owner",
          "type": "address"
        }
      ],
      "name": "balanceOf",
      "outputs": [
        {
          "internalType": "uint256",
          "name": "",
          "type": "uint256"
        }
      ],
      "stateMutability": "view",
      "type": "function"
    },
    {
      "inputs": [
        {
          "internalType": "address",
          "name": "_nftContract",
          "type": "address"
        },
        {
          "internalType": "address",
          "name": "_user",
          "type": "address"
        }
      ],
      "name": "checkNFTowner",
      "outputs": [
        {
          "internalType": "bool",
          "name": "",
          "type": "bool"
        }
      ],
      "stateMutability": "view",
      "type": "function"
    },
    {
      "inputs": [
        {
          "internalType": "uint256",
          "name": "tokenId",
          "type": "uint256"
        }
      ],
      "name": "createMarketSale",
      "outputs": [],
      "stateMutability": "payable",
      "type": "function"
    },
    {
      "inputs": [
        {
          "internalType": "string",
          "name": "tokenURI",
          "type": "string"
        },
        {
          "internalType": "uint256",
          "name": "price",
          "type": "uint256"
        }
      ],
      "name": "createToken",
      "outputs": [
        {
          "internalType": "uint256",
          "name": "",
          "type": "uint256"
        }
      ],
      "stateMutability": "payable",
      "type": "function"
    },
    {
      "inputs": [],
      "name": "fetchItemsListed",
      "outputs": [
        {
          "components": [
            {
              "internalType": "uint256",
              "name": "tokenId",
              "type": "uint256"
            },
            {
              "internalType": "address payable",
              "name": "seller",
              "type": "address"
            },
            {
              "internalType": "address payable",
              "name": "owner",
              "type": "address"
            },
            {
              "internalType": "uint256",
              "name": "price",
              "type": "uint256"
            },
            {
              "internalType": "bool",
              "name": "sold",
              "type": "bool"
            },
            {
              "internalType": "uint256",
              "name": "played",
              "type": "uint256"
            }
          ],
          "internalType": "struct NFTMarketplace.MarketItem[]",
          "name": "",
          "type": "tuple[]"
        }
      ],
      "stateMutability": "view",
      "type": "function"
    },
    {
      "inputs": [],
      "name": "fetchMarketItems",
      "outputs": [
        {
          "components": [
            {
              "internalType": "uint256",
              "name": "tokenId",
              "type": "uint256"
            },
            {
              "internalType": "address payable",
              "name": "seller",
              "type": "address"
            },
            {
              "internalType": "address payable",
              "name": "owner",
              "type": "address"
            },
            {
              "internalType": "uint256",
              "name": "price",
              "type": "uint256"
            },
            {
              "internalType": "bool",
              "name": "sold",
              "type": "bool"
            },
            {
              "internalType": "uint256",
              "name": "played",
              "type": "uint256"
            }
          ],
          "internalType": "struct NFTMarketplace.MarketItem[]",
          "name": "",
          "type": "tuple[]"
        }
      ],
      "stateMutability": "view",
      "type": "function"
    },
    {
      "inputs": [],
      "name": "fetchMyNFTs",
      "outputs": [
        {
          "components": [
            {
              "internalType": "uint256",
              "name": "tokenId",
              "type": "uint256"
            },
            {
              "internalType": "address payable",
              "name": "seller",
              "type": "address"
            },
            {
              "internalType": "address payable",
              "name": "owner",
              "type": "address"
            },
            {
              "internalType": "uint256",
              "name": "price",
              "type": "uint256"
            },
            {
              "internalType": "bool",
              "name": "sold",
              "type": "bool"
            },
            {
              "internalType": "uint256",
              "name": "played",
              "type": "uint256"
            }
          ],
          "internalType": "struct NFTMarketplace.MarketItem[]",
          "name": "",
          "type": "tuple[]"
        }
      ],
      "stateMutability": "view",
      "type": "function"
    },
    {
      "inputs": [
        {
          "internalType": "uint256",
          "name": "tokenId",
          "type": "uint256"
        }
      ],
      "name": "getApproved",
      "outputs": [
        {
          "internalType": "address",
          "name": "",
          "type": "address"
        }
      ],
      "stateMutability": "view",
      "type": "function"
    },
    {
      "inputs": [],
      "name": "getListingPrice",
      "outputs": [
        {
          "internalType": "uint256",
          "name": "",
          "type": "uint256"
        }
      ],
      "stateMutability": "view",
      "type": "function"
    },
    {
      "inputs": [
        {
          "internalType": "uint256",
          "name": "_tokenId",
          "type": "uint256"
        }
      ],
      "name": "getNftUsage",
      "outputs": [
        {
          "internalType": "uint256",
          "name": "",
          "type": "uint256"
        }
      ],
      "stateMutability": "view",
      "type": "function"
    },
    {
      "inputs": [
        {
          "internalType": "address",
          "name": "owner",
          "type": "address"
        },
        {
          "internalType": "address",
          "name": "operator",
          "type": "address"
        }
      ],
      "name": "isApprovedForAll",
      "outputs": [
        {
          "internalType": "bool",
          "name": "",
          "type": "bool"
        }
      ],
      "stateMutability": "view",
      "type": "function"
    },
    {
      "inputs": [],
      "name": "name",
      "outputs": [
        {
          "internalType": "string",
          "name": "",
          "type": "string"
        }
      ],
      "stateMutability": "view",
      "type": "function"
    },
    {
      "inputs": [
        {
          "internalType": "uint256",
          "name": "tokenId",
          "type": "uint256"
        }
      ],
      "name": "ownerOf",
      "outputs": [
        {
          "internalType": "address",
          "name": "",
          "type": "address"
        }
      ],
      "stateMutability": "view",
      "type": "function"
    },
    {
      "inputs": [
        {
          "internalType": "uint256",
          "name": "tokenId",
          "type": "uint256"
        },
        {
          "internalType": "uint256",
          "name": "price",
          "type": "uint256"
        }
      ],
      "name": "resellToken",
      "outputs": [],
      "stateMutability": "payable",
      "type": "function"
    },
    {
      "inputs": [
        {
          "internalType": "address",
          "name": "from",
          "type": "address"
        },
        {
          "internalType": "address",
          "name": "to",
          "type": "address"
        },
        {
          "internalType": "uint256",
          "name": "tokenId",
          "type": "uint256"
        }
      ],
      "name": "safeTransferFrom",
      "outputs": [],
      "stateMutability": "nonpayable",
      "type": "function"
    },
    {
      "inputs": [
        {
          "internalType": "address",
          "name": "from",
          "type": "address"
        },
        {
          "internalType": "address",
          "name": "to",
          "type": "address"
        },
        {
          "internalType": "uint256",
          "name": "tokenId",
          "type": "uint256"
        },
        {
          "internalType": "bytes",
          "name": "_data",
          "type": "bytes"
        }
      ],
      "name": "safeTransferFrom",
      "outputs": [],
      "stateMutability": "nonpayable",
      "type": "function"
    },
    {
      "inputs": [
        {
          "internalType": "address",
          "name": "operator",
          "type": "address"
        },
        {
          "internalType": "bool",
          "name": "approved",
          "type": "bool"
        }
      ],
      "name": "setApprovalForAll",
      "outputs": [],
      "stateMutability": "nonpayable",
      "type": "function"
    },
    {
      "inputs": [
        {
          "internalType": "bytes4",
          "name": "interfaceId",
          "type": "bytes4"
        }
      ],
      "name": "supportsInterface",
      "outputs": [
        {
          "internalType": "bool",
          "name": "",
          "type": "bool"
        }
      ],
      "stateMutability": "view",
      "type": "function"
    },
    {
      "inputs": [],
      "name": "symbol",
      "outputs": [
        {
          "internalType": "string",
          "name": "",
          "type": "string"
        }
      ],
      "stateMutability": "view",
      "type": "function"
    },
    {
      "inputs": [
        {
          "internalType": "uint256",
          "name": "tokenId",
          "type": "uint256"
        }
      ],
      "name": "tokenURI",
      "outputs": [
        {
          "internalType": "string",
          "name": "",
          "type": "string"
        }
      ],
      "stateMutability": "view",
      "type": "function"
    },
    {
      "inputs": [
        {
          "internalType": "address",
          "name": "from",
          "type": "address"
        },
        {
          "internalType": "address",
          "name": "to",
          "type": "address"
        },
        {
          "internalType": "uint256",
          "name": "tokenId",
          "type": "uint256"
        }
      ],
      "name": "transferFrom",
      "outputs": [],
      "stateMutability": "nonpayable",
      "type": "function"
    },
    {
      "inputs": [
        {
          "internalType": "uint256",
          "name": "_listingPrice",
          "type": "uint256"
        }
      ],
      "name": "updateListingPrice",
      "outputs": [],
      "stateMutability": "payable",
      "type": "function"
    },
    {
      "inputs": [
        {
          "internalType": "uint256",
          "name": "_tokenId",
          "type": "uint256"
        }
      ],
      "name": "useNFT",
      "outputs": [],
      "stateMutability": "nonpayable",
      "type": "function"
    }
  ],
  "bytecode": "0x60806040526611c37937e080006009553480156200001c57600080fd5b50604080518082018252600e81526d466f6c696f706c6179204e46547360901b6020808301918252835180850190945260048452631193919560e21b9084015281519192916200006f91600091620000a0565b50805162000085906001906020840190620000a0565b5050600a80546001600160a01b031916331790555062000183565b828054620000ae9062000146565b90600052602060002090601f016020900481019282620000d257600085556200011d565b82601f10620000ed57805160ff19168380011785556200011d565b828001600101855582156200011d579182015b828111156200011d57825182559160200191906001019062000100565b506200012b9291506200012f565b5090565b5b808211156200012b576000815560010162000130565b600181811c908216806200015b57607f821691505b602082108114156200017d57634e487b7160e01b600052602260045260246000fd5b50919050565b61253b80620001936000396000f3fe6080604052600436106101665760003560e01c80636c4f7c27116100d1578063ae677aa31161008a578063c87b56dd11610064578063c87b56dd14610412578063e1676d0c14610432578063e219fc7514610452578063e985e9c51461046557600080fd5b8063ae677aa3146103cc578063b88d4fde146103df578063be9af536146103ff57600080fd5b80636c4f7c271461030757806370a082311461033457806372b3b6201461035457806395d89b4114610367578063a101e72d1461037c578063a22cb465146103ac57600080fd5b8063202e374011610123578063202e37401461025d57806323b872dd1461027257806342842e0e1461029257806345f8fa80146102b257806355b9d443146102c75780636352211e146102e757600080fd5b806301ffc9a71461016b57806306fdde03146101a0578063081812fc146101c2578063095ea7b3146101fa5780630f08efe01461021c57806312e855851461023e575b600080fd5b34801561017757600080fd5b5061018b6101863660046120da565b6104ae565b60405190151581526020015b60405180910390f35b3480156101ac57600080fd5b506101b5610500565b60405161019791906122d7565b3480156101ce57600080fd5b506101e26101dd366004612168565b610592565b6040516001600160a01b039091168152602001610197565b34801561020657600080fd5b5061021a6102153660046120b1565b61061f565b005b34801561022857600080fd5b50610231610735565b6040516101979190612251565b34801561024a57600080fd5b506009545b604051908152602001610197565b34801561026957600080fd5b506102316108d3565b34801561027e57600080fd5b5061021a61028d366004611fc3565b610aaf565b34801561029e57600080fd5b5061021a6102ad366004611fc3565b610ae0565b3480156102be57600080fd5b50610231610afb565b3480156102d357600080fd5b5061021a6102e2366004612168565b610cd7565b3480156102f357600080fd5b506101e2610302366004612168565b610cfc565b34801561031357600080fd5b5061024f610322366004612168565b600c6020526000908152604090205481565b34801561034057600080fd5b5061024f61034f366004611f77565b610d73565b61024f610362366004612112565b610dfa565b34801561037357600080fd5b506101b5610e3c565b34801561038857600080fd5b5061024f610397366004612168565b6000908152600b602052604090206005015490565b3480156103b857600080fd5b5061021a6103c7366004612077565b610e4b565b61021a6103da366004612168565b610e5a565b3480156103eb57600080fd5b5061021a6103fa366004611ffe565b610ed2565b61021a61040d366004612168565b610f0a565b34801561041e57600080fd5b506101b561042d366004612168565b611072565b34801561043e57600080fd5b5061018b61044d366004611f91565b6111e9565b61021a610460366004612198565b61127d565b34801561047157600080fd5b5061018b610480366004611f91565b6001600160a01b03918216600090815260056020908152604080832093909416825291909152205460ff1690565b60006001600160e01b031982166380ac58cd60e01b14806104df57506001600160e01b03198216635b5e139f60e01b145b806104fa57506301ffc9a760e01b6001600160e01b03198316145b92915050565b60606000805461050f90612440565b80601f016020809104026020016040519081016040528092919081815260200182805461053b90612440565b80156105885780601f1061055d57610100808354040283529160200191610588565b820191906000526020600020905b81548152906001019060200180831161056b57829003601f168201915b5050505050905090565b600061059d82611375565b6106035760405162461bcd60e51b815260206004820152602c60248201527f4552433732313a20617070726f76656420717565727920666f72206e6f6e657860448201526b34b9ba32b73a103a37b5b2b760a11b60648201526084015b60405180910390fd5b506000908152600460205260409020546001600160a01b031690565b600061062a82610cfc565b9050806001600160a01b0316836001600160a01b031614156106985760405162461bcd60e51b815260206004820152602160248201527f4552433732313a20617070726f76616c20746f2063757272656e74206f776e656044820152603960f91b60648201526084016105fa565b336001600160a01b03821614806106b457506106b48133610480565b6107265760405162461bcd60e51b815260206004820152603860248201527f4552433732313a20617070726f76652063616c6c6572206973206e6f74206f7760448201527f6e6572206e6f7220617070726f76656420666f7220616c6c000000000000000060648201526084016105fa565b6107308383611392565b505050565b6060600061074260075490565b9050600061074f60085490565b60075461075c91906123fd565b90506000808267ffffffffffffffff81111561078857634e487b7160e01b600052604160045260246000fd5b6040519080825280602002602001820160405280156107c157816020015b6107ae611e02565b8152602001906001900390816107a65790505b50905060005b848110156108ca5730600b60006107df8460016123d1565b81526020810191909152604001600020600201546001600160a01b031614156108b857600061080f8260016123d1565b6000818152600b6020908152604091829020825160c0810184528154815260018201546001600160a01b039081169382019390935260028201549092169282019290925260038201546060820152600482015460ff1615156080820152600582015460a08201528551929350909185908790811061089d57634e487b7160e01b600052603260045260246000fd5b60209081029190910101526108b36001866123d1565b945050505b806108c28161247b565b9150506107c7565b50949350505050565b606060006108e060075490565b905060008060005b838110156109435733600b60006109008460016123d1565b81526020810191909152604001600020600201546001600160a01b031614156109315761092e6001846123d1565b92505b8061093b8161247b565b9150506108e8565b5060008267ffffffffffffffff81111561096d57634e487b7160e01b600052604160045260246000fd5b6040519080825280602002602001820160405280156109a657816020015b610993611e02565b81526020019060019003908161098b5790505b50905060005b848110156108ca5733600b60006109c48460016123d1565b81526020810191909152604001600020600201546001600160a01b03161415610a9d5760006109f48260016123d1565b6000818152600b6020908152604091829020825160c0810184528154815260018201546001600160a01b039081169382019390935260028201549092169282019290925260038201546060820152600482015460ff1615156080820152600582015460a082015285519293509091859087908110610a8257634e487b7160e01b600052603260045260246000fd5b6020908102919091010152610a986001866123d1565b945050505b80610aa78161247b565b9150506109ac565b610ab93382611400565b610ad55760405162461bcd60e51b81526004016105fa90612380565b6107308383836114e6565b61073083838360405180602001604052806000815250610ed2565b60606000610b0860075490565b905060008060005b83811015610b6b5733600b6000610b288460016123d1565b81526020810191909152604001600020600101546001600160a01b03161415610b5957610b566001846123d1565b92505b80610b638161247b565b915050610b10565b5060008267ffffffffffffffff811115610b9557634e487b7160e01b600052604160045260246000fd5b604051908082528060200260200182016040528015610bce57816020015b610bbb611e02565b815260200190600190039081610bb35790505b50905060005b848110156108ca5733600b6000610bec8460016123d1565b81526020810191909152604001600020600101546001600160a01b03161415610cc5576000610c1c8260016123d1565b6000818152600b6020908152604091829020825160c0810184528154815260018201546001600160a01b039081169382019390935260028201549092169282019290925260038201546060820152600482015460ff1615156080820152600582015460a082015285519293509091859087908110610caa57634e487b7160e01b600052603260045260246000fd5b6020908102919091010152610cc06001866123d1565b945050505b80610ccf8161247b565b915050610bd4565b6000818152600b60205260408120600501805491610cf48361247b565b919050555050565b6000818152600260205260408120546001600160a01b0316806104fa5760405162461bcd60e51b815260206004820152602960248201527f4552433732313a206f776e657220717565727920666f72206e6f6e657869737460448201526832b73a103a37b5b2b760b91b60648201526084016105fa565b60006001600160a01b038216610dde5760405162461bcd60e51b815260206004820152602a60248201527f4552433732313a2062616c616e636520717565727920666f7220746865207a65604482015269726f206164647265737360b01b60648201526084016105fa565b506001600160a01b031660009081526003602052604090205490565b6000610e0a600780546001019055565b6000610e1560075490565b9050610e213382611682565b610e2b81856117b5565b610e358184611840565b9392505050565b60606001805461050f90612440565b610e563383836119ab565b5050565b600a546001600160a01b03163314610ecd5760405162461bcd60e51b815260206004820152603060248201527f4f6e6c79206d61726b6574706c616365206f776e65722063616e20757064617460448201526f32903634b9ba34b73390383934b1b29760811b60648201526084016105fa565b600955565b610edc3383611400565b610ef85760405162461bcd60e51b81526004016105fa90612380565b610f0484848484611a7a565b50505050565b6000818152600b6020526040902060030154348114610f93576040805162461bcd60e51b81526020600482015260248101919091527f506c65617365207375626d6974207468652061736b696e67207072696365206960448201527f6e206f7264657220746f20636f6d706c6574652074686520707572636861736560648201526084016105fa565b6000828152600b602052604090206002810180546001600160a01b0319908116331790915560048201805460ff1916600190811790915590910180549091169055610fe2600880546001019055565b610fed3033846114e6565b600a546009546040516001600160a01b039092169181156108fc0291906000818181858888f19350505050158015611029573d6000803e3d6000fd5b506000828152600b60205260408082206001015490516001600160a01b03909116913480156108fc02929091818181858888f19350505050158015610730573d6000803e3d6000fd5b606061107d82611375565b6110e35760405162461bcd60e51b815260206004820152603160248201527f45524337323155524953746f726167653a2055524920717565727920666f72206044820152703737b732bc34b9ba32b73a103a37b5b2b760791b60648201526084016105fa565b600082815260066020526040812080546110fc90612440565b80601f016020809104026020016040519081016040528092919081815260200182805461112890612440565b80156111755780601f1061114a57610100808354040283529160200191611175565b820191906000526020600020905b81548152906001019060200180831161115857829003601f168201915b50505050509050600061119360408051602081019091526000815290565b90508051600014156111a6575092915050565b8151156111d85780826040516020016111c09291906121e5565b60405160208183030381529060405292505050919050565b6111e184611aad565b949350505050565b6040516370a0823160e01b81526001600160a01b0382811660048301526000916001918516906370a082319060240160206040518083038186803b15801561123057600080fd5b505afa158015611244573d6000803e3d6000fd5b505050506040513d601f19601f820116820180604052508101906112689190612180565b10611275575060016104fa565b5060006104fa565b6000828152600b60205260409020600201546001600160a01b031633146112f95760405162461bcd60e51b815260206004820152602a60248201527f4f6e6c79206974656d206f776e65722063616e20706572666f726d20746869736044820152691037b832b930ba34b7b760b11b60648201526084016105fa565b600954341461131a5760405162461bcd60e51b81526004016105fa9061233c565b6000828152600b6020526040902060048101805460ff19169055600381018290556001810180546001600160a01b03199081163317909155600290910180549091163017905561136a6008611b84565b610e563330846114e6565b6000908152600260205260409020546001600160a01b0316151590565b600081815260046020526040902080546001600160a01b0319166001600160a01b03841690811790915581906113c782610cfc565b6001600160a01b03167f8c5be1e5ebec7d5bd14f71427d1e84f3dd0314c0f7b2291e5b200ac8c7c3b92560405160405180910390a45050565b600061140b82611375565b61146c5760405162461bcd60e51b815260206004820152602c60248201527f4552433732313a206f70657261746f7220717565727920666f72206e6f6e657860448201526b34b9ba32b73a103a37b5b2b760a11b60648201526084016105fa565b600061147783610cfc565b9050806001600160a01b0316846001600160a01b031614806114b25750836001600160a01b03166114a784610592565b6001600160a01b0316145b806111e157506001600160a01b0380821660009081526005602090815260408083209388168352929052205460ff166111e1565b826001600160a01b03166114f982610cfc565b6001600160a01b03161461155d5760405162461bcd60e51b815260206004820152602560248201527f4552433732313a207472616e736665722066726f6d20696e636f72726563742060448201526437bbb732b960d91b60648201526084016105fa565b6001600160a01b0382166115bf5760405162461bcd60e51b8152602060048201526024808201527f4552433732313a207472616e7366657220746f20746865207a65726f206164646044820152637265737360e01b60648201526084016105fa565b6115ca600082611392565b6001600160a01b03831660009081526003602052604081208054600192906115f39084906123fd565b90915550506001600160a01b03821660009081526003602052604081208054600192906116219084906123d1565b909155505060008181526002602052604080822080546001600160a01b0319166001600160a01b0386811691821790925591518493918716917fddf252ad1be2c89b69c2b068fc378daa952ba7f163c4a11628f55a4df523b3ef91a4505050565b6001600160a01b0382166116d85760405162461bcd60e51b815260206004820181905260248201527f4552433732313a206d696e7420746f20746865207a65726f206164647265737360448201526064016105fa565b6116e181611375565b1561172e5760405162461bcd60e51b815260206004820152601c60248201527f4552433732313a20746f6b656e20616c7265616479206d696e7465640000000060448201526064016105fa565b6001600160a01b03821660009081526003602052604081208054600192906117579084906123d1565b909155505060008181526002602052604080822080546001600160a01b0319166001600160a01b03861690811790915590518392907fddf252ad1be2c89b69c2b068fc378daa952ba7f163c4a11628f55a4df523b3ef908290a45050565b6117be82611375565b6118215760405162461bcd60e51b815260206004820152602e60248201527f45524337323155524953746f726167653a2055524920736574206f66206e6f6e60448201526d32bc34b9ba32b73a103a37b5b2b760911b60648201526084016105fa565b6000828152600660209081526040909120825161073092840190611e4c565b600081116118905760405162461bcd60e51b815260206004820152601c60248201527f5072696365206d757374206265206174206c656173742031207765690000000060448201526064016105fa565b60095434146118b15760405162461bcd60e51b81526004016105fa9061233c565b6040805160c081018252838152336020808301828152308486018181526060860188815260006080880181815260a089018281528c8352600b9097529890209651875592516001870180546001600160a01b03199081166001600160a01b03938416179091559151600288018054909316911617905590516003850155935160048401805460ff19169115159190911790555160059092019190915561195791846114e6565b60408051338152306020820152908101829052600060608201819052608082015282907f2d68735082042d66c5027bd8c6f7e29d9eaa7ce21cd00f9671f170b22a091d289060a00160405180910390a25050565b816001600160a01b0316836001600160a01b03161415611a0d5760405162461bcd60e51b815260206004820152601960248201527f4552433732313a20617070726f766520746f2063616c6c65720000000000000060448201526064016105fa565b6001600160a01b03838116600081815260056020908152604080832094871680845294825291829020805460ff191686151590811790915591519182527f17307eab39ab6107e8899845ad3d59bd9653f200f220920489ca2b5937696c31910160405180910390a3505050565b611a858484846114e6565b611a9184848484611bdb565b610f045760405162461bcd60e51b81526004016105fa906122ea565b6060611ab882611375565b611b1c5760405162461bcd60e51b815260206004820152602f60248201527f4552433732314d657461646174613a2055524920717565727920666f72206e6f60448201526e3732bc34b9ba32b73a103a37b5b2b760891b60648201526084016105fa565b6000611b3360408051602081019091526000815290565b90506000815111611b535760405180602001604052806000815250610e35565b80611b5d84611ce8565b604051602001611b6e9291906121e5565b6040516020818303038152906040529392505050565b805480611bd35760405162461bcd60e51b815260206004820152601b60248201527f436f756e7465723a2064656372656d656e74206f766572666c6f77000000000060448201526064016105fa565b600019019055565b60006001600160a01b0384163b15611cdd57604051630a85bd0160e11b81526001600160a01b0385169063150b7a0290611c1f903390899088908890600401612214565b602060405180830381600087803b158015611c3957600080fd5b505af1925050508015611c69575060408051601f3d908101601f19168201909252611c66918101906120f6565b60015b611cc3573d808015611c97576040519150601f19603f3d011682016040523d82523d6000602084013e611c9c565b606091505b508051611cbb5760405162461bcd60e51b81526004016105fa906122ea565b805181602001fd5b6001600160e01b031916630a85bd0160e11b1490506111e1565b506001949350505050565b606081611d0c5750506040805180820190915260018152600360fc1b602082015290565b8160005b8115611d365780611d208161247b565b9150611d2f9050600a836123e9565b9150611d10565b60008167ffffffffffffffff811115611d5f57634e487b7160e01b600052604160045260246000fd5b6040519080825280601f01601f191660200182016040528015611d89576020820181803683370190505b5090505b84156111e157611d9e6001836123fd565b9150611dab600a86612496565b611db69060306123d1565b60f81b818381518110611dd957634e487b7160e01b600052603260045260246000fd5b60200101906001600160f81b031916908160001a905350611dfb600a866123e9565b9450611d8d565b6040518060c001604052806000815260200160006001600160a01b0316815260200160006001600160a01b0316815260200160008152602001600015158152602001600081525090565b828054611e5890612440565b90600052602060002090601f016020900481019282611e7a5760008555611ec0565b82601f10611e9357805160ff1916838001178555611ec0565b82800160010185558215611ec0579182015b82811115611ec0578251825591602001919060010190611ea5565b50611ecc929150611ed0565b5090565b5b80821115611ecc5760008155600101611ed1565b600067ffffffffffffffff80841115611f0057611f006124d6565b604051601f8501601f19908116603f01168101908282118183101715611f2857611f286124d6565b81604052809350858152868686011115611f4157600080fd5b858560208301376000602087830101525050509392505050565b80356001600160a01b0381168114611f7257600080fd5b919050565b600060208284031215611f88578081fd5b610e3582611f5b565b60008060408385031215611fa3578081fd5b611fac83611f5b565b9150611fba60208401611f5b565b90509250929050565b600080600060608486031215611fd7578081fd5b611fe084611f5b565b9250611fee60208501611f5b565b9150604084013590509250925092565b60008060008060808587031215612013578081fd5b61201c85611f5b565b935061202a60208601611f5b565b925060408501359150606085013567ffffffffffffffff81111561204c578182fd5b8501601f8101871361205c578182fd5b61206b87823560208401611ee5565b91505092959194509250565b60008060408385031215612089578182fd5b61209283611f5b565b9150602083013580151581146120a6578182fd5b809150509250929050565b600080604083850312156120c3578182fd5b6120cc83611f5b565b946020939093013593505050565b6000602082840312156120eb578081fd5b8135610e35816124ec565b600060208284031215612107578081fd5b8151610e35816124ec565b60008060408385031215612124578182fd5b823567ffffffffffffffff81111561213a578283fd5b8301601f8101851361214a578283fd5b61215985823560208401611ee5565b95602094909401359450505050565b600060208284031215612179578081fd5b5035919050565b600060208284031215612191578081fd5b5051919050565b600080604083850312156121aa578182fd5b50508035926020909101359150565b600081518084526121d1816020860160208601612414565b601f01601f19169290920160200192915050565b600083516121f7818460208801612414565b83519083019061220b818360208801612414565b01949350505050565b6001600160a01b0385811682528416602082015260408101839052608060608201819052600090612247908301846121b9565b9695505050505050565b602080825282518282018190526000919060409081850190868401855b828110156122ca57815180518552868101516001600160a01b03908116888701528682015116868601526060808201519086015260808082015115159086015260a0908101519085015260c0909301929085019060010161226e565b5091979650505050505050565b602081526000610e3560208301846121b9565b60208082526032908201527f4552433732313a207472616e7366657220746f206e6f6e20455243373231526560408201527131b2b4bb32b91034b6b83632b6b2b73a32b960711b606082015260800190565b60208082526024908201527f5072696365206d75737420626520657175616c20746f206c697374696e6720706040820152637269636560e01b606082015260800190565b60208082526031908201527f4552433732313a207472616e736665722063616c6c6572206973206e6f74206f6040820152701ddb995c881b9bdc88185c1c1c9bdd9959607a1b606082015260800190565b600082198211156123e4576123e46124aa565b500190565b6000826123f8576123f86124c0565b500490565b60008282101561240f5761240f6124aa565b500390565b60005b8381101561242f578181015183820152602001612417565b83811115610f045750506000910152565b600181811c9082168061245457607f821691505b6020821081141561247557634e487b7160e01b600052602260045260246000fd5b50919050565b600060001982141561248f5761248f6124aa565b5060010190565b6000826124a5576124a56124c0565b500690565b634e487b7160e01b600052601160045260246000fd5b634e487b7160e01b600052601260045260246000fd5b634e487b7160e01b600052604160045260246000fd5b6001600160e01b03198116811461250257600080fd5b5056fea2646970667358221220369d0a0179e090b39333b1b4c2d735358481cb0dc7d1579385fd5270a3eeab2a64736f6c63430008040033",
  "linkReferences": {},
  "deployedLinkReferences": {}
}